{
  "contractName": "PoolRewards",
  "abi": [
    {
      "inputs": [],
      "stateMutability": "nonpayable",
      "type": "constructor"
    },
    {
      "anonymous": false,
      "inputs": [
        {
          "components": [
            {
              "internalType": "uint256",
              "name": "roundId",
              "type": "uint256"
            },
            {
              "internalType": "uint256",
              "name": "date",
              "type": "uint256"
            },
            {
              "internalType": "uint256",
              "name": "totalSupply",
              "type": "uint256"
            },
            {
              "internalType": "uint256",
              "name": "rewards",
              "type": "uint256"
            }
          ],
          "indexed": false,
          "internalType": "struct PoolRewards.Round",
          "name": "round",
          "type": "tuple"
        }
      ],
      "name": "DepositRewardsEvent",
      "type": "event"
    },
    {
      "anonymous": false,
      "inputs": [
        {
          "components": [
            {
              "internalType": "address",
              "name": "owner",
              "type": "address"
            },
            {
              "internalType": "uint256",
              "name": "amount",
              "type": "uint256"
            },
            {
              "internalType": "uint256",
              "name": "date",
              "type": "uint256"
            },
            {
              "internalType": "uint256",
              "name": "roundId",
              "type": "uint256"
            }
          ],
          "indexed": false,
          "internalType": "struct PoolRewards.Investment",
          "name": "investment",
          "type": "tuple"
        }
      ],
      "name": "InvestmentEvent",
      "type": "event"
    },
    {
      "anonymous": false,
      "inputs": [
        {
          "components": [
            {
              "internalType": "address",
              "name": "owner",
              "type": "address"
            },
            {
              "internalType": "uint256",
              "name": "amount",
              "type": "uint256"
            },
            {
              "internalType": "uint256",
              "name": "date",
              "type": "uint256"
            },
            {
              "internalType": "uint256",
              "name": "roundId",
              "type": "uint256"
            }
          ],
          "indexed": false,
          "internalType": "struct PoolRewards.Investment",
          "name": "investment",
          "type": "tuple"
        },
        {
          "components": [
            {
              "internalType": "uint256",
              "name": "roundId",
              "type": "uint256"
            },
            {
              "internalType": "uint256",
              "name": "date",
              "type": "uint256"
            },
            {
              "internalType": "uint256",
              "name": "totalSupply",
              "type": "uint256"
            },
            {
              "internalType": "uint256",
              "name": "rewards",
              "type": "uint256"
            }
          ],
          "indexed": false,
          "internalType": "struct PoolRewards.Round",
          "name": "round",
          "type": "tuple"
        },
        {
          "indexed": false,
          "internalType": "uint256",
          "name": "amount",
          "type": "uint256"
        }
      ],
      "name": "WithdrawEvent",
      "type": "event"
    },
    {
      "inputs": [
        {
          "internalType": "address",
          "name": "",
          "type": "address"
        },
        {
          "internalType": "uint256",
          "name": "",
          "type": "uint256"
        }
      ],
      "name": "account",
      "outputs": [
        {
          "internalType": "uint256",
          "name": "",
          "type": "uint256"
        }
      ],
      "stateMutability": "view",
      "type": "function",
      "constant": true
    },
    {
      "inputs": [
        {
          "internalType": "uint256",
          "name": "",
          "type": "uint256"
        }
      ],
      "name": "investments",
      "outputs": [
        {
          "internalType": "address",
          "name": "owner",
          "type": "address"
        },
        {
          "internalType": "uint256",
          "name": "amount",
          "type": "uint256"
        },
        {
          "internalType": "uint256",
          "name": "date",
          "type": "uint256"
        },
        {
          "internalType": "uint256",
          "name": "roundId",
          "type": "uint256"
        }
      ],
      "stateMutability": "view",
      "type": "function",
      "constant": true
    },
    {
      "inputs": [
        {
          "internalType": "uint256",
          "name": "",
          "type": "uint256"
        }
      ],
      "name": "rounds",
      "outputs": [
        {
          "internalType": "uint256",
          "name": "roundId",
          "type": "uint256"
        },
        {
          "internalType": "uint256",
          "name": "date",
          "type": "uint256"
        },
        {
          "internalType": "uint256",
          "name": "totalSupply",
          "type": "uint256"
        },
        {
          "internalType": "uint256",
          "name": "rewards",
          "type": "uint256"
        }
      ],
      "stateMutability": "view",
      "type": "function",
      "constant": true
    },
    {
      "inputs": [
        {
          "internalType": "address",
          "name": "",
          "type": "address"
        }
      ],
      "name": "team",
      "outputs": [
        {
          "internalType": "bool",
          "name": "",
          "type": "bool"
        }
      ],
      "stateMutability": "view",
      "type": "function",
      "constant": true
    },
    {
      "inputs": [],
      "name": "invest",
      "outputs": [],
      "stateMutability": "payable",
      "type": "function",
      "payable": true
    },
    {
      "inputs": [],
      "name": "depositRewards",
      "outputs": [],
      "stateMutability": "payable",
      "type": "function",
      "payable": true
    },
    {
      "inputs": [],
      "name": "withdraw",
      "outputs": [],
      "stateMutability": "nonpayable",
      "type": "function"
    },
    {
      "inputs": [
        {
          "internalType": "address",
          "name": "_teammate",
          "type": "address"
        }
      ],
      "name": "addTeammate",
      "outputs": [],
      "stateMutability": "nonpayable",
      "type": "function"
    },
    {
      "inputs": [
        {
          "internalType": "address",
          "name": "_teammate",
          "type": "address"
        }
      ],
      "name": "deleteTeammate",
      "outputs": [],
      "stateMutability": "nonpayable",
      "type": "function"
    }
  ],
  "bytecode": "0x608060405234801561001057600080fd5b5060016000803373ffffffffffffffffffffffffffffffffffffffff1673ffffffffffffffffffffffffffffffffffffffff16815260200190815260200160002060006101000a81548160ff02191690831515021790555060006040518060800160405280600081526020014281526020016000815260200160008152509050600381908060018154018082558091505060019003906000526020600020906004020160009091909190915060008201518160000155602082015181600101556040820151816002015560608201518160030155505050611398806100f66000396000f3fe6080604052600436106100865760003560e01c806355c2cf9d1161005957806355c2cf9d146101265780638c65c81f1461014f578063ba9f9a451461018f578063e8b5e51f146101b8578063fd345c8a146101c257610086565b8063152111f71461008b578063192df655146100955780633ccfd60b146100d25780633de94925146100e9575b600080fd5b610093610202565b005b3480156100a157600080fd5b506100bc60048036038101906100b79190610d69565b610445565b6040516100c99190610db8565b60405180910390f35b3480156100de57600080fd5b506100e7610476565b005b3480156100f557600080fd5b50610110600480360381019061010b9190610dd3565b6107ee565b60405161011d9190610e1b565b60405180910390f35b34801561013257600080fd5b5061014d60048036038101906101489190610dd3565b61080e565b005b34801561015b57600080fd5b5061017660048036038101906101719190610e36565b6108fa565b6040516101869493929190610e63565b60405180910390f35b34801561019b57600080fd5b506101b660048036038101906101b19190610dd3565b61093a565b005b6101c0610a26565b005b3480156101ce57600080fd5b506101e960048036038101906101e49190610e36565b610c32565b6040516101f99493929190610eb7565b60405180910390f35b600115156000803373ffffffffffffffffffffffffffffffffffffffff1673ffffffffffffffffffffffffffffffffffffffff16815260200190815260200160002060009054906101000a900460ff16151514610294576040517f08c379a000000000000000000000000000000000000000000000000000000000815260040161028b90610f59565b60405180910390fd5b34600360016003805490506102a99190610fa8565b815481106102ba576102b9610fdc565b5b906000526020600020906004020160030160008282546102da919061100b565b925050819055507f0860b46e61c2e77b285397f0c490e2a19ae4e926ef7e6125cdb6e240ee22ffd7600360016003805490506103169190610fa8565b8154811061032757610326610fdc565b5b90600052602060002090600402016040516103429190611124565b60405180910390a16000604051806080016040528060038054905081526020014281526020016003600160038054905061037c9190610fa8565b8154811061038d5761038c610fdc565b5b906000526020600020906004020160030154600360016003805490506103b39190610fa8565b815481106103c4576103c3610fdc565b5b9060005260206000209060040201600201546103e0919061100b565b815260200160008152509050600381908060018154018082558091505060019003906000526020600020906004020160009091909190915060008201518160000155602082015181600101556040820151816002015560608201518160030155505050565b6002602052816000526040600020818154811061046157600080fd5b90600052602060002001600091509150505481565b6000805b600260003373ffffffffffffffffffffffffffffffffffffffff1673ffffffffffffffffffffffffffffffffffffffff168152602001908152602001600020805490508110156107585760006001600260003373ffffffffffffffffffffffffffffffffffffffff1673ffffffffffffffffffffffffffffffffffffffff168152602001908152602001600020838154811061051957610518610fdc565b5b90600052602060002001548154811061053557610534610fdc565b5b906000526020600020906004020160010154905060006001600260003373ffffffffffffffffffffffffffffffffffffffff1673ffffffffffffffffffffffffffffffffffffffff168152602001908152602001600020848154811061059e5761059d610fdc565b5b9060005260206000200154815481106105ba576105b9610fdc565b5b90600052602060002090600402016003015490505b60038054905081101561073557600381815481106105f0576105ef610fdc565b5b906000526020600020906004020160020154826003838154811061061757610616610fdc565b5b906000526020600020906004020160030154610633919061113f565b61063d91906111c8565b82610648919061100b565b91507f8c656cb12b154ddbd097ca4810697723f304b9e87dc2ffee431a1dd0f89f28cf6001600260003373ffffffffffffffffffffffffffffffffffffffff1673ffffffffffffffffffffffffffffffffffffffff16815260200190815260200160002085815481106106be576106bd610fdc565b5b9060005260206000200154815481106106da576106d9610fdc565b5b9060005260206000209060040201600383815481106106fc576106fb610fdc565b5b90600052602060002090600402018460405161071a939291906112c5565b60405180910390a1808061072d906112fe565b9150506105cf565b508083610742919061100b565b9250508080610750906112fe565b91505061047a565b50600260003373ffffffffffffffffffffffffffffffffffffffff1673ffffffffffffffffffffffffffffffffffffffff16815260200190815260200160002060006107a49190610c92565b3373ffffffffffffffffffffffffffffffffffffffff166108fc829081150290604051600060405180830381858888f193505050501580156107ea573d6000803e3d6000fd5b5050565b60006020528060005260406000206000915054906101000a900460ff1681565b600115156000803373ffffffffffffffffffffffffffffffffffffffff1673ffffffffffffffffffffffffffffffffffffffff16815260200190815260200160002060009054906101000a900460ff161515146108a0576040517f08c379a000000000000000000000000000000000000000000000000000000000815260040161089790610f59565b60405180910390fd5b60008060008373ffffffffffffffffffffffffffffffffffffffff1673ffffffffffffffffffffffffffffffffffffffff16815260200190815260200160002060006101000a81548160ff02191690831515021790555050565b6003818154811061090a57600080fd5b90600052602060002090600402016000915090508060000154908060010154908060020154908060030154905084565b600115156000803373ffffffffffffffffffffffffffffffffffffffff1673ffffffffffffffffffffffffffffffffffffffff16815260200190815260200160002060009054906101000a900460ff161515146109cc576040517f08c379a00000000000000000000000000000000000000000000000000000000081526004016109c390610f59565b60405180910390fd5b60016000808373ffffffffffffffffffffffffffffffffffffffff1673ffffffffffffffffffffffffffffffffffffffff16815260200190815260200160002060006101000a81548160ff02191690831515021790555050565b600060405180608001604052803373ffffffffffffffffffffffffffffffffffffffff1681526020013481526020014281526020016001600380549050610a6d9190610fa8565b8152509050600181908060018154018082558091505060019003906000526020600020906004020160009091909190915060008201518160000160006101000a81548173ffffffffffffffffffffffffffffffffffffffff021916908373ffffffffffffffffffffffffffffffffffffffff1602179055506020820151816001015560408201518160020155606082015181600301555050600260003373ffffffffffffffffffffffffffffffffffffffff1673ffffffffffffffffffffffffffffffffffffffff16815260200190815260200160002060018080549050610b559190610fa8565b90806001815401808255809150506001900390600052602060002001600090919091909150557f368850ed317c97da75bd7a70639a6620f5a9c874b4c4b1db5e12bf682144d2b46001808080549050610bae9190610fa8565b81548110610bbf57610bbe610fdc565b5b9060005260206000209060040201604051610bda9190611347565b60405180910390a13460036001600380549050610bf79190610fa8565b81548110610c0857610c07610fdc565b5b90600052602060002090600402016002016000828254610c28919061100b565b9250508190555050565b60018181548110610c4257600080fd5b90600052602060002090600402016000915090508060000160009054906101000a900473ffffffffffffffffffffffffffffffffffffffff16908060010154908060020154908060030154905084565b5080546000825590600052602060002090810190610cb09190610cb3565b50565b5b80821115610ccc576000816000905550600101610cb4565b5090565b600080fd5b600073ffffffffffffffffffffffffffffffffffffffff82169050919050565b6000610d0082610cd5565b9050919050565b610d1081610cf5565b8114610d1b57600080fd5b50565b600081359050610d2d81610d07565b92915050565b6000819050919050565b610d4681610d33565b8114610d5157600080fd5b50565b600081359050610d6381610d3d565b92915050565b60008060408385031215610d8057610d7f610cd0565b5b6000610d8e85828601610d1e565b9250506020610d9f85828601610d54565b9150509250929050565b610db281610d33565b82525050565b6000602082019050610dcd6000830184610da9565b92915050565b600060208284031215610de957610de8610cd0565b5b6000610df784828501610d1e565b91505092915050565b60008115159050919050565b610e1581610e00565b82525050565b6000602082019050610e306000830184610e0c565b92915050565b600060208284031215610e4c57610e4b610cd0565b5b6000610e5a84828501610d54565b91505092915050565b6000608082019050610e786000830187610da9565b610e856020830186610da9565b610e926040830185610da9565b610e9f6060830184610da9565b95945050505050565b610eb181610cf5565b82525050565b6000608082019050610ecc6000830187610ea8565b610ed96020830186610da9565b610ee66040830185610da9565b610ef36060830184610da9565b95945050505050565b600082825260208201905092915050565b7f4e6f742070617274206f6620746865207465616d000000000000000000000000600082015250565b6000610f43601483610efc565b9150610f4e82610f0d565b602082019050919050565b60006020820190508181036000830152610f7281610f36565b9050919050565b7f4e487b7100000000000000000000000000000000000000000000000000000000600052601160045260246000fd5b6000610fb382610d33565b9150610fbe83610d33565b925082821015610fd157610fd0610f79565b5b828203905092915050565b7f4e487b7100000000000000000000000000000000000000000000000000000000600052603260045260246000fd5b600061101682610d33565b915061102183610d33565b9250827fffffffffffffffffffffffffffffffffffffffffffffffffffffffffffffffff0382111561105657611055610f79565b5b828201905092915050565b60008160001c9050919050565b6000819050919050565b600061108b61108683611061565b61106e565b9050919050565b61109b81610d33565b82525050565b6080820160008083015490506110b681611078565b6110c36000860182611092565b50600183015490506110d481611078565b6110e16020860182611092565b50600283015490506110f281611078565b6110ff6040860182611092565b506003830154905061111081611078565b61111d6060860182611092565b5050505050565b600060808201905061113960008301846110a1565b92915050565b600061114a82610d33565b915061115583610d33565b9250817fffffffffffffffffffffffffffffffffffffffffffffffffffffffffffffffff048311821515161561118e5761118d610f79565b5b828202905092915050565b7f4e487b7100000000000000000000000000000000000000000000000000000000600052601260045260246000fd5b60006111d382610d33565b91506111de83610d33565b9250826111ee576111ed611199565b5b828204905092915050565b600073ffffffffffffffffffffffffffffffffffffffff82169050919050565b600061122c61122783611061565b6111f9565b9050919050565b61123c81610cf5565b82525050565b60808201600080830154905061125781611219565b6112646000860182611233565b506001830154905061127581611078565b6112826020860182611092565b506002830154905061129381611078565b6112a06040860182611092565b50600383015490506112b181611078565b6112be6060860182611092565b5050505050565b6000610120820190506112db6000830186611242565b6112e860808301856110a1565b6112f6610100830184610da9565b949350505050565b600061130982610d33565b91507fffffffffffffffffffffffffffffffffffffffffffffffffffffffffffffffff82141561133c5761133b610f79565b5b600182019050919050565b600060808201905061135c6000830184611242565b9291505056fea2646970667358221220c015f72438868e421bda284d1057fc42505cf85c26ea247c4330d689e3a3446c64736f6c634300080a0033",
  "immutableReferences": {},
  "source": "// SPDX-License-Identifier: MIT\r\npragma solidity ^0.8.10;\r\n\r\n// @author Agustin Tommasi\r\n\r\n// @title Smart Contract Challenge\r\n// https://github.com/exactly-finance/challenge\r\n\r\ncontract PoolRewards {\r\n    struct Investment {\r\n        address owner;\r\n        uint256 amount;\r\n        uint256 date;\r\n        uint256 roundId;\r\n    }\r\n    struct Round {\r\n        uint256 roundId;\r\n        uint256 date;\r\n        uint256 totalSupply;\r\n        uint256 rewards;\r\n    }\r\n\r\n    mapping(address => bool) public team;\r\n\r\n    Investment[] public investments;\r\n\r\n    mapping(address => uint256[]) public account;\r\n\r\n    Round[] public rounds;\r\n\r\n    constructor() {\r\n        team[msg.sender] = true;\r\n\r\n        Round memory _round = Round({\r\n            roundId: 0,\r\n            date: block.timestamp,\r\n            totalSupply: 0,\r\n            rewards: 0\r\n        });\r\n        rounds.push(_round);\r\n    }\r\n\r\n    event InvestmentEvent(Investment investment);\r\n\r\n    function invest() public payable {\r\n        Investment memory _investment = Investment({\r\n            owner: msg.sender,\r\n            amount: msg.value,\r\n            date: block.timestamp,\r\n            roundId: rounds.length - 1\r\n        });\r\n\r\n        investments.push(_investment);\r\n\r\n        account[msg.sender].push(investments.length - 1);\r\n        emit InvestmentEvent(investments[investments.length - 1]);\r\n\r\n        rounds[rounds.length - 1].totalSupply += msg.value;\r\n    }\r\n\r\n    event DepositRewardsEvent(Round round);\r\n\r\n    function depositRewards() public payable onlyTeam {\r\n        rounds[rounds.length - 1].rewards += msg.value;\r\n        emit DepositRewardsEvent(rounds[rounds.length - 1]);\r\n\r\n        Round memory _round = Round({\r\n            roundId: rounds.length,\r\n            date: block.timestamp,\r\n            totalSupply: rounds[rounds.length - 1].totalSupply +\r\n                rounds[rounds.length - 1].rewards,\r\n            rewards: 0\r\n        });\r\n        rounds.push(_round);\r\n    }\r\n\r\n    event WithdrawEvent(Investment investment, Round round, uint256 amount);\r\n\r\n    function withdraw() public {\r\n        uint256 _totalAmount = 0;\r\n        for (uint256 index = 0; index < account[msg.sender].length; index++) {\r\n            uint256 _amount = investments[account[msg.sender][index]].amount;\r\n            for (\r\n                uint256 r = investments[account[msg.sender][index]].roundId;\r\n                r < rounds.length;\r\n                r++\r\n            ) {\r\n                _amount +=\r\n                    (rounds[r].rewards * _amount) /\r\n                    rounds[r].totalSupply;\r\n                emit WithdrawEvent({\r\n                    investment: investments[account[msg.sender][index]],\r\n                    round: rounds[r],\r\n                    amount: _amount\r\n                });\r\n            }\r\n\r\n            _totalAmount += _amount;\r\n        }\r\n\r\n        delete account[msg.sender];\r\n\r\n        payable(msg.sender).transfer(_totalAmount);\r\n    }\r\n\r\n    modifier onlyTeam() {\r\n        require(team[msg.sender] == true, \"Not part of the team\");\r\n        _;\r\n    }\r\n\r\n    function addTeammate(address _teammate) public onlyTeam {\r\n        team[_teammate] = true;\r\n    }\r\n\r\n    function deleteTeammate(address _teammate) public onlyTeam {\r\n        team[_teammate] = false;\r\n    }\r\n}\r\n",
  "sourcePath": "C:\\SSD\\CODE\\solidity-challenge\\contracts\\PoolRewards.sol",
  "compiler": {
    "name": "solc",
    "version": "0.8.10+commit.fc410830.Emscripten.clang"
  },
  "schemaVersion": "3.4.4",
  "updatedAt": "2022-02-01T20:37:22.124Z",
  "networkType": "ethereum",
  "devdoc": {
    "kind": "dev",
    "methods": {},
    "version": 1
  },
  "userdoc": {
    "kind": "user",
    "methods": {},
    "version": 1
  }
}